:020000040800F2
:1000000000000824AD1B0108FD1B0108FD1B0108B1
:10001000FD1B0108FD1B0108FD1B0108000000007D
:10002000000000000000000000000000FD1B0108AF
:10003000FD1B010800000000FD1B0108F568000819
:10004000FD1B0108FD1B0108FD1B0108FD1B01082C
:10005000FD1B0108FD1B0108B5710008E1710008D6
:100060000D7200083972000865720008853A0008B0
:10007000913A0008FD1B01089D3A0008A93A0008C2
:10008000FD1B0108FD1B0108FD1B0108FD1B0108EC
:10009000FD1B0108FD1B0108FD1B010891720008F2
:1000A000FD1B0108193F0008FD1B01082D3F00083A
:1000B000413F0008553F0008693F0008B53A000875
:1000C000D93A0008613B0008853B0008FD1B010888
:1000D000FD1B0108B1700008CD700008ED7000082C
:1000E000ED720008FD1B010800000000F53F00084C
:1000F000B93F000809400008E13F0008FD1B010866
:10010000FD1B0108FD1B01087D3F0008FD1B0108C8
:100110000D71000829710008913F0008A53F0008F3
:10012000FD1B0108FD1B0108FD1B0108FD1B01084B
:10013000FD1B0108FD1B0108FD1B0108FD1B01083B
:1001400000000000000000000000000000000000AF
:10015000FD1B0108FD1B0108FD1B0108457100087E
:100160000D3C0008313C0008FD1B0108FD1B010887
:10017000FD1B0108FD1B0108FD1B0108FD1B0108FB
:10018000FD1B0108FD1B01087D7100089971000825
:10019000FD1B0108FD1B0108FD1B0108FD1B0108DB
:1001A000FD1B0108FD1B0108FD1B0108FD1B0108CB
:1001B000FD1B0108FD1B0108FD1B0108B93C0008DF
:1001C0004D3D0008FD1B0108FD1B0108FD1B01083A
:1001D0001DEA000831D20008FD1B0108FD1B0108C3
:1001E000FD1B0108FD1B0108FD1B0108FD1B01088B
:1001F000FD1B0108FD1B0108FD1B0108FD1B01087B
:10020000FD1B0108FD1B0108FD1B0108FD1B01086A
:100210001D4000083140000845400008FD1B010852
:10022000FD1B0108FD1B0108FD1B0108000000006B
:10023000FD1B0108FD1B010800000000FD1B01085B
:10024000FD1B0108FD1B0108FD1B0108FD1B01082A
:10025000FD1B0108FD1B0108FD1B0108FD1B01081A
:10026000FD1B0108FD1B0108FD1B0108FD1B01080A
:10027000FD1B0108FD1B0108617100080000000062
:10028000FD1B0108FD1B0108FD1B0108000000000B
:0802900000000000FD1B010845
:1002980000207047028BC08A101A7047C28A034632
:1002A800018B914204D90069511C805CD982704746
:1002B8004FF0FF30704700BFC38A028B9A4202D9C1
:1002C8000269D05C70474FF0FF307047026DD2F87A
:1002D800BC3013B10021518418477047026838B503
:1002E800524B9A4248D018339A4245D03033504C3A
:1002F8005049A24218BF9A4204F148040CBF012396
:1003080000238A4208BF43F001033031A24208BFEC
:1003180043F0010330348A4208BF43F0010301F57A
:100328005C71A24208BF43F0010304F55C748A4281
:1003380008BF43F001033031A24208BF43F0010374
:1003480030348A4208BF43F001033031A24208BF6B
:1003580043F0010330348A4208BF43F001033031CF
:10036800A24208BF43F001038A4208BF43F00103D9
:1003780013B9314B9A4208D1042380F835301368F9
:1003880023F001031360002038BD2C4B2C4D11685D
:10039800AA4218BF9A422B4C21F00E0105F13C05E8
:1003A8000CBF012300231160A24208BF43F00103E0
:1003B80011682834AA4208BF43F0010321F0010163
:1003C800A24208BF43F0010314341160A24208BFDF
:1003D80043F001031C498A4208BF43F0010313B9E3
:1003E8001A4B9A4217D10123856DD0E91714226858
:1003F80001F01F0122F480728B4022606B60C36E93
:10040800D0E91921516033B11A68D0E91C1422F4DB
:1004180080721A604C6001210022036D80F835104B
:1004280080F83420002BAED09847ACE7100002408B
:100438004000024070000240B80402401C540258B8
:1004480008540258305402588054025894540258A0
:100458002DE9F04300229C4B83B09C4E1D688146D9
:10046800019203689A4A846D934218BFB342276881
:1004780008BF0126216818BF002645D018329548C4
:10048800834218BF934200F118000CBF01220022DA
:10049800834208BF42F001021830834208BF42F08D
:1004A80001021830834208BF42F00102183083422B
:1004B80008BF42F0010200F55670834208BF42F0BF
:1004C80001021830834208BF42F00102183083420B
:1004D80008BF42F001021830834208BF42F001020F
:1004E8001830834208BF42F001021830834208BF27
:1004F80042F001021830834208BF42F001021AB9E3
:10050800754A934240F05082D9F85C10082201F0F5
:100518001F0C02FA0CF2174240F0888127FA0CF2FD
:10052800D2070CD55A69100609D5012202FA0CF235
:10053800A260D9F8542042F00202C9F854204FF0C2
:10054800040E0EFA0CF038425BD0002E4FD1614AEF
:10055800DFF88881434518BF934208F130080CBF83
:1005680001220022434508BF42F0010208F11808A1
:10057800434508BF42F0010208F11808434508BF87
:1005880042F0010208F11808434508BF42F0010291
:1005980008F55678434508BF42F0010208F11808EB
:1005A800434508BF42F0010208F11808434508BF57
:1005B80042F0010208F11808434508BF42F0010261
:1005C80008F11808434508BF42F0010208F118086D
:1005D800434508BF42F0010208F11808434508BF27
:1005E80042F001021AB93C4A934240F019821A6853
:1005F800920706D5A060D9F8542042F00402C9F841
:100608005420102202FA0CFC1CEA070F6CD0002EB2
:1006180045D1304A314EB34218BF934206F13006F5
:100628000CBF01220022B34208BF42F00102183673
:10063800B34208BF42F001021836B34208BF42F085
:1006480001021836B34208BF42F0010206F5567699
:10065800B34208BF42F001021836B34208BF42F065
:1006680001021836B34208BF42F001021836B342FD
:1006780008BF42F001021836B34208BF42F0010237
:100688001836B34208BF42F001021836B34208BF19
:1006980042F001021AB9104A934240F0C9811A681F
:1006A800100721D5C4F808C01A68560300F14C8118
:1006B8001A68D20503D41A6822F008021A60D9F819
:1006C80040308BB10CE000BF000000241000024055
:1006D8002800024058000240B8040240400002408E
:1006E80048469847D9F85C1001F01F0120268E4033
:1006F8003E4268D0D9F80020A54BA64FBA4218BF91
:100708009A4207F118070CBF01230023BA4208BF19
:1007180043F001031837BA4208BF43F00103183702
:10072800BA4208BF43F001031837BA4208BF43F082
:1007380001031837BA4208BF43F001031837BA4219
:1007480008BF43F0010307F55677BA4208BF43F0E4
:1007580001031837BA4208BF43F001031837BA42F9
:1007680008BF43F001031837BA4208BF43F001033A
:100778001837BA4208BF43F001031837BA4208BF16
:1007880043F001031837BA4208BF43F001031BB90D
:10079800814B9A4240F062811368DB0613D5A6604C
:1007A80099F83530042B136800F0AE8013F4802FCD
:1007B800136800F0D3801C0340F1DE80D9F83C3088
:1007C8000BB148469847D9F85430002B00F0B9804F
:1007D800D9F85430D8071FD5D9F80020042189F852
:1007E8003510136823F0010313606C4BA3FB053528
:1007F800AD0A02E01368D90704D5019B0133AB4267
:100808000193F7D91368DB074CBF0323012389F849
:100818003530002389F83430D9F84C30002B00F0FB
:100828009080484603B0BDE8F04318471868400771
:100838000AD5186820F004001860A260D9F854207E
:1008480042F00102C9F8542027FA0CF2D2077FF5CA
:1008580076AE534A5348834218BF934200F13000A2
:100868000CBF01220022834208BF42F00102183067
:10087800834208BF42F001021830834208BF42F0A9
:1008880001021830834208BF42F0010200F5567099
:10089800834208BF42F001021830834208BF42F089
:1008A80001021830834208BF42F001021830834227
:1008B80008BF42F001021830834208BF42F001022B
:1008C8001830834208BF42F001021830834208BF43
:1008D80042F001021830834208BF42F00102002AA8
:1008E8007FF420AE002E7FF41DAE1A68042202FAAF
:1008F8000CF23A4240F09480102202FA0CFC17EAFB
:100908000C0F3FF4F1AE84E623F01603136053692D
:1009180023F080035361D9F840309BB3136823F068
:10092800080313603F230125002203FA01F1D9F8D7
:100938005030A16089F8355089F83420002B7FF4B5
:1009480070AF03B0BDE8F0831B6818037FF5B7AE3E
:10095800D9F84830002B7FF4C3AEC5E613F4807392
:100968007FF42CAF116821F010011160012289F881
:10097800343089F8352021E7D9F84430002B7FF44A
:1009880020AF20E7D9F84830002BC7D1CAE700BF0D
:100998001000024028000240B8040240B5814E1BF6
:1009A80058000240400002404E4A4F4DAB4218BF2B
:1009B800934205F114050CBF01220022AB4208BF87
:1009C80042F001021435AB4208BF42F0010214356F
:1009D800AB4208BF42F001021435AB4208BF42F0F7
:1009E80001021435AB4208BF42F0010212B93F4A76
:1009F8009342A6D1D9F85C5004261A6805F01F0561
:100A0800AE400E4219D0570717D5100466604BD573
:100A1800D1034FD4D9F84830002B7FF402AF90E7C8
:100A28001A68102202FA0CFC17EA0C0F3FF45CAEAD
:100A38001A6852077FF558AE34E60226AE400E42D9
:100A480011D097070FD56660140439D5D00343D465
:100A5800D9F84430002B7FF4E4AE72E713689F079F
:100A68007FF5B1AE9BE60826AE400E423FF469AF73
:100A780011077FF566AF1A68002122F00E021A608E
:100A88000123D9F84C2003FA05F56560C9F85430FC
:100A980089F8341089F83530002A3FF452AF4846B7
:100AA80003B0BDE8F0431047920603D41A6822F059
:100AB80004021A60D9F84030002B7FF4B2AE40E748
:100AC80012F0200208D11968012421F00A011960E6
:100AD80089F8354089F83420D9F83C30002B7FF468
:100AE800A0AE2EE7085402581C54025894540258D9
:100AF8000268344B344930B4344D354CAA4218BFDF
:100B08009A420CBF012300238A4208BF43F0010325
:100B18003031A24208BF43F0010330348A4208BF93
:100B280043F001033031A24208BF43F001033034DF
:100B38008A4208BF43F0010301F55C71A24208BF75
:100B480043F0010304F55C748A4208BF43F00103D3
:100B58003031A24208BF43F0010330348A4208BF53
:100B680043F001033031A24208BF43F0010330349F
:100B78008A4208BF43F001033031A24208BF43F064
:100B880001038A4208BF43F0010313B9114B9A428B
:100B980013D1D3B21049114C103BA1FB03515F2B69
:100BA8000F4BC1F3021103EA0203615C88BF0433EF
:100BB800C1658365184630BC704722F0FF02826524
:100BC8001046F8E7100002404000024028000240AA
:100BD80058000240B8040240ABAAAAAA883F0108FC
:100BE80000FCFFFF38B520220023264D044643634E
:100BF800C562036380F8412080F842304B0708D56E
:100C08000268436A526A1A70436A028D013343626A
:100C180032BB2368102094F84120002194F8412029
:100C28001A6822F0FE021A60D86194F8893084F8B4
:100C38004010012B1FD00023022284F88920E3658D
:100C480094F84130202B00D038BD226828230E4963
:100C580084F841301368616343F0B803136038BD0A
:100C6800438D013A013B02859BB24385436C43F0B7
:100C780004034364CDE7E36D002BDCD0236E201F13
:100C88009847D8E70000FFFF7947000810B54FF0F4
:100C9800000C90F84130544A044680F842C0283B82
:100CA800C262A0F82AC0022B426C41EA02014164E8
:100CB8006DD890F8411090F8410001F028012368A0
:100CC80000F0280028291A6814BF6FF0F6016FF0A9
:100CD800460128284FF0280018BF6FF0F6010A4097
:100CE8001A60424A84F841006263A06B226B18B113
:100CF800112A1CD0212A1AD0E06B18B1122A2BD045
:100D0800222A29D094F84120602A08D0002294F899
:100D18008A10226384F84020002950D010BD002397
:100D2800202284F8403084F84120236310BD1A68DB
:100D380051043FD490F83520012AE3D000222C4BEF
:100D4800036584F8402090F83520022A45D0802297
:100D58004265BDE8104018471A68120403D51A689E
:100D680022F400421A6090F83520012ACAD00022E5
:100D78001F4B036584F8402090F83520022AE6D1FD
:100D8800FFF7ACFA0028C9D0E06B036DE1E7036810
:100D980090F8412090F841201A6822F0FE021A606B
:100DA80090F84120602A02D0202280F841200022B9
:100DB80062639AE71A6822F480421A60BAE794F8E4
:100DC8004120202AAAD12822084984F841201A68FB
:100DD800616342F0B8021A6010BDFFF77FFA00287D
:100DE8009CD0A06B036DB4E70000FFFF79470008B3
:100DF800211300082022036810B4DA6183B090F848
:100E08004120212A62D090F84120222A39D05A68FC
:100E1800364C224000245A60354A4463C262CA06EE
:100E280005D51022DA61426C42F00402426490F85F
:100E38004120602A43D09A69910701D500229A621D
:100E48009A69D20703D49A6942F001029A61436C05
:100E580090F84120602A0FD01A1E18BF01225BB9F2
:100E680090F84130212B1CD090F84130222B18D01B
:100E780003B05DF8044B7047416C03B05DF8044B58
:100E880004E790F841401A6804F02804282C0CBFA5
:100E98006FF044046FF0F404224012241A600463D3
:100EA800B5E7202380F8402080F84130026390F8AD
:100EB800423080F8422003B05DF8044B70474C077D
:100EC800B9D55A6AD2B20192019AB4E790F8414072
:100ED8001A6804F02804282C0CBF6FF042046FF045
:100EE800F204224011241A60046390E700E800FE2F
:100EF8000000FFFF90F84030012B00F0B58001237F
:100F0800F0B580F84030CB0683B004460D461BD5BB
:100F1800D70619D503681021D961416C41F0040145
:100F280041649969880701D5002199629969C907BF
:100F380062D5A90602D5930600F18C8000231846D5
:100F480084F8403003B0F0BD6B0711D4A80722D550
:100F5800910720D5616A238D11F8016B013B206848
:100F680086622385638D6162013B9BB26385E0E7FE
:100F78005707EBD5216825F00405636A496A19709B
:100F8800638D616A013B01319BB26162218D63858A
:100F98004B1E2385CDE72B0615D46E06C9D5500602
:100FA800C7D5638D9BB2002B4DD121684B6813F0D8
:100FB8000073BED1E06A10F5803F7DD14B6843F4E1
:100FC80080434B60B5E75706B3D5638D9BB2C3B179
:100FD800238DB3B920684168638DC1F309019BB2C1
:100FE800FF2B55D94368484E33401943474B0B43B1
:100FF800FF21218543609CE7996941F001019961CE
:1010080097E721684B6813F000731CD184F84230CD
:1010180094F84100636321284FF0200084F84100D0
:1010280024D01220206394F841000E6800F02800B4
:1010380028280CBF6FF044006FF0F40030400860BF
:1010480084F8403075E7402120460192FFF71EFEE4
:10105800019A6EE720462946FFF7CCFE0023184682
:1010680084F8403003B0F0BD02207047112020639F
:1010780094F8410000F02800282808680CBF6FF099
:1010880042066FF0F2063040086084F8403050E7BE
:10109800638DE66A9BB216F5803F2385DBB228D0C4
:1010A800E66A46EA0343184E0B43416823F00043BF
:1010B80031400B4343603CE784F8423094F84100E8
:1010C800636321284FF0200084F84100A9D1112042
:1010D800206394F841000E6800F0280028280CBF0F
:1010E8006FF042006FF0F2003040086084F8403042
:1010F8001FE74668044F3E40314341EA034343F04B
:101108000073436015E700BF009C00FC0000FF016E
:1011180038B590F84030012B00F085800123CD06CA
:10112800044680F8403024D5D00622D51022236802
:10113800616B7648DA61626C814242F00402626453
:101148006FD0734A91426CD020211A680A431A6002
:101158009A69920701D500229A629A69D50703D441
:101168009A6942F001029A610023184684F84030D7
:1011780038BD080637D553064BD523681A6822F0C0
:1011880040021A60628D92B2002A4ED05868618D72
:10119800C0F3090089B2FF296AD8628DE56A91B265
:1011A80015F5803F218500F085805FFA81FCE26AB1
:1011B8004FEA0C4C42EA0C02564D0243586822F0A2
:1011C8000042284002435A60628D521A92B26285E8
:1011D80094F84120222A1A680CBF42F4004242F4D3
:1011E80080421A60C0E74D0613D5500611D5638DAD
:1011F8009BB2002B37D12268536813F00073B3D128
:10120800E16A11F5803F3BD1536843F48043536052
:10121800AAE78B06A8D59206A6D52046FFF7EAFDD1
:10122800A2E7602191E7022038BD5A6812F00072E7
:1012380019D184F84220202094F8411021293FD068
:10124800122184F841006263216394F841101A68FE
:1012580001F0280128290CBF6FF044016FF0F40158
:101268000A401A6080E740212046FFF70FFD7BE720
:10127800FF224FF47F0C114622854FF0807299E7C8
:1012880084F84230202094F8411021292BD01221D3
:1012980084F841006363216394F84110136801F0F6
:1012A800280128290CBF6FF044016FF0F4010B40AE
:1012B800136059E7CAB24FEA024C4FF0007279E75F
:1012C800112184F841006263216394F841101A687F
:1012D80001F0280128290CBF6FF042016FF0F201DC
:1012E8000A401A6040E7112184F8410063632163D2
:1012F80094F84110136801F0280128290CBF6FF0F9
:1013080042016FF0F2010B4013602DE74D460008D3
:1013180019110008009C00FC836B9A6B0AB100212C
:101328001165DA6B0AB10021116593F84120602A32
:101338004FF0000215D093F88A101A6383F8402002
:1013480001B1704793F84120202AFAD11968282260
:10135800074883F841200A68586342F0B8020A60D7
:101368007047202183F8402083F841101A637047A2
:1013780079470008374A936A03F00303032B63D0C5
:10138800136830B423F08063334C1360256803E09E
:1013980023685B1B022B54D813681B01F8D4936A8B
:1013A800056823F47C3343EA053393628368C56890
:1013B800013B013D5B022D049BB205F4FE052B4366
:1013C8004568013DC5F308052B430569013D2D0618
:1013D80005F0FE452B439363D36A456923F0C003A8
:1013E8002B43D362D36A856923F020032B43D3624E
:1013F800D36A23F01003D362184BD56BC0692B4016
:1014080043EAC003D363D36A43F01003D362D36AB9
:10141800E1B101290CBF43F4801343F40013D362F4
:101428000C4A136843F080631360216803E0236863
:101438005B1A022B05D813681B01F8D5002030BCB5
:101448007047032030BC70470120704743F40023E5
:10145800D362E5E700440258E80200240700FFFFD2
:10146800374A936A03F00303032B63D0136830B43D
:1014780023F08053334C1360256803E023685B1B1B
:10148800022B54D813689B00F8D4936A056823F09C
:101498007C7343EA055393628368C568013B013D49
:1014A8005B022D049BB205F4FE052B434568013D04
:1014B800C5F308052B430569013D2D0605F0FE45DA
:1014C8002B431364D36A456923F440632B43D362E7
:1014D800D36A856923F400732B43D362D36A23F458
:1014E8008073D362184B556CC0692B4043EAC00324
:1014F8005364D36A43F48073D362D36AE1B1012998
:101508000CBF43F4000343F08073D3620C4A1368A2
:1015180043F080531360216803E023685B1A022BB1
:1015280005D813689B00F8D5002030BC704703200D
:1015380030BC70470120704743F48003D362E5E76D
:1015480000440258E80200240700FFFFC369B3F50E
:10155800807F1BD0836B00211A68586CA3F87E101B
:101568001168082821F40031116059680FD06FF014
:10157800610C6FF005000239012998BF60461169B6
:101588004FF0010C0140116183F891C0704721F0C0
:10159800020001280BBF6FF0710C6FF0610C6FF047
:1015A80015006FF00500E6E7704700BFC369826B5E
:1015B800B3F5807F10B4136818D019680024506CF4
:1015C80021F40031082819605168A2F87E402ED015
:1015D8006FF061046FF005000239012998BF2046B9
:1015E800196901240140196182F891401E4A934209
:1015F8000BD02032934208D01C4A934224D0203288
:10160800934221D05DF8044B7047194BD3E99524D8
:101618005208C3F85C22002CF4D0D3E99301234686
:1016280001EB820100EB82005DF8044B184721F0C2
:10163800020001280BBF6FF071046FF061046FF0B6
:1016480015006FF00500C7E7094BD3F8B024D3F8AD
:10165800B4445208C3F8B824002CD3D0D3F8AC143F
:10166800D3F8A804DBE700BF04580140045C01403C
:10167800E8020024836B194A1B68934210B40BD00C
:101688002032934208D0164A934216D02032934211
:1016980013D05DF8044B7047124B0022D3F8584220
:1016A800C3F85C22002CF4D0D3F84C02D3E994128E
:1016B80023465DF8044B520818470A4B0022D3F81A
:1016C800B444C3F8B824002CE3D003F5956023464E
:1016D8005DF8044B07C85208184700BF045801407A
:1016E800045C0140E8020024436D022B25D0806B86
:1016F800164BD0F89420016842F080021B6810B4A1
:10170800C0F89420124C0A68A4FB034322F4003268
:101718001B0B0A600A689B0022F480320A606BB1D6
:101728000A68013BD203FAD40122002380F89120F1
:101738005DF8044BA0F87E3070477047D0F89430BD
:1017480043F04003C0F89430EEE700BF00000024E7
:101758001BECCB9503681A69920710B5044613D59C
:10176800DA68900710D501226FF0020154F8040CD2
:10177800196122779A69C26F22B1D0F8803074302B
:1017880098472368002222771A69510714D5DA6826
:10179800520711D502226FF0040154F8040C1961A4
:1017A80022779A69D0F88C2022B1D0F89030843012
:1017B80098472368002222771A69100714D5DA6837
:1017C800110711D504226FF0080154F8040C1961AF
:1017D8002277DA69D0F89C2022B1D0F8A030943072
:1017E80098472368002222771A69D20614D5DA6846
:1017F800D00611D508226FF0100154F8040C1961B5
:101808002277DA69D0F8AC2022B1D0F8B030A43011
:1018180098472368002222771A69D10702D5DA6827
:10182800D20718D41A69140602D5DA68100626D425
:101838001A69D10502D5DA68120619D41A6954064C
:1018480002D5DA68500621D41A69910602D5DA68F9
:10185800920622D410BD54F8040C6FF00101C26E38
:101868001961002ADED0036F643098472368D9E7EE
:101878006FF480721A611A695406E5D5E1E76FF0D2
:1018880080021A611A69D105D8D5D4E76FF04002F1
:101898001A611A699106DDD5D9E76FF020021A613D
:1018A80010BD00BFD0F88430212B00D07047B0F8AD
:1018B80056309BB28BB9026852E8003F23F0800390
:1018C80042E800310029F7D152E8003F43F04003D5
:1018D80042E800310029F7D17047026D036812F819
:1018E800011B9962B0F856300265013B9BB2A0F823
:1018F80056307047D0F88430212B00D07047B0F8AC
:1019080056309BB28BB9026852E8003F23F080033F
:1019180042E800310029F7D152E8003F43F0400384
:1019280042E800310029F7D17047026D016832F8AA
:10193800023BC3F308038B62B0F856300265013BE3
:101948009BB2A0F856307047D0F88430212B00D0D5
:101958007047B0F86A30002BFAD0016810B4B0F8BC
:101968005620013B92B29BB292B1CA6912060AD5BF
:10197800046D14F8012B8A62B0F856200465013A08
:1019880092B2A0F85620002BE9D15DF8044B7047BD
:1019980001F1080353E8003F23F4000301F10804B0
:1019A80044E80032002AF3D1026852E8003F43F0CD
:1019B800400342E800310029F7D15DF8044B704735
:1019C800D0F88430212B00D07047B0F86A30002B53
:1019D800FAD0016810B4B0F85620013B92B29BB21D
:1019E800A2B1CA6912060CD5046D34F8022BC2F3F1
:1019F80008028A62B0F856200465013A92B2A0F84B
:101A08005620002BE7D15DF8044B704701F108031D
:101A180053E8003F23F4000301F1080444E80032CE
:101A2800002AF3D1026852E8003F43F0400342E83D
:101A380000310029F7D15DF8044B7047036853E87B
:101A4800002F22F4907243E800210029F7D103F116
:101A5800080252E8002F22F0010203F1080C4CE8BA
:101A680000210029F3D120220167C0F88820C26E26
:101A7800012A0FD1C16653E8002F22F0100243E873
:101A880000210029F7D1DA69D20602D510221A629C
:101A980070477047D0F8903004381847D0F888203D
:101AA800222A026804D0936943F0080393617047BF
:101AB800526AB0F860C0816D02EA0C020A70B0F890
:101AC8005E20816D013A013192B28165A0F85E20F5
:101AD800B0F85E309BB2002BE9D1AFE7D0F8882090
:101AE800222A026804D0936943F00803936170477F
:101AF800526AB0F860C0816D02EA0C0221F8022B2C
:101B0800B0F85E208165013A92B2A0F85E20B0F884
:101B18005E309BB2002BEAD190E700BF0E4B93F8E2
:101B2800C53410B50C466BB1B2F5F072496840681F
:101B380018BF0122002908BF42F0010202B930B9DA
:101B4800216010BD03680B6043684B6010BD0DF049
:101B5800D3FE61682160F4E7E80200242DE9F04F24
:101B6800CF4B0D46844614462DED028B89B0D3F831
:101B7800F084D3F8EC1400AFB8F1000FD3F8DC64AC
:101B8800D1F814E007BF4FF0020B082110214FF0E5
:101B9800040BF6B19100E946BEF1010F01F107010E
:101BA80021F00701ADEB010D6846ADEB010D69466B
:101BB80000F03281BEF1020F00F0C580BEF1000FC7
:101BC8005BD0B047CD462437BD46BDEC028BBDE89F
:101BD800F08FD3F8D824BA61002AF4D0D8F8582264
:101BE800BBF1020F7A616A4608EE102A00F0A18163
:101BF800A2EBC40295466200EA46B2FBFBF2AAEBEE
:101C0800C40085460AEB8200E8460646ADEB010DA6
:101C1800F86108EB8200E946ADEB010D06EB8201A5
:101C2800C9F804606E46C9F8081001EB8201C9F8CA
:101C380000A0C9F80C1000EB820101EB8202C6E992
:101C48000080C6E90212BEF1010F00F07783BEF1F1
:101C5800020F00F07582BEF1000F00F08581620866
:101C680031464846BB69984718EE103A24379D46D6
:101C7800BD46BDEC028BBDE8F08F002AA1D003F56C
:101C88009B68DFED926A03460CF1040298ED0B7A2B
:101C98003CF92EA0083307EE90AA32F92EA00EF1D7
:101CA800020EF8EEE77A744567EEA67A67EE877A51
:101CB80043ED027A07EE90AAF8EEE77A67EEA67A85
:101CC80067EE877A43ED017AE2D8F9612246B04798
:101CD800D8ED046AF96900202B1D9FED727A9FEDFB
:101CE800726ADFED725A724E22E0F4EEC67AF1EEB5
:101CF80010FAC0F2DC8447F6FE72D1ED017A45F89D
:101D0800202066EEA77AF4EEC77AF1EE10FA40F2D8
:101D18000E81F4EEC67AF1EE10FAC0F2E88447F6C6
:101D2800FE7243F820200230083184427FF64AAF21
:101D3800D1ED007A66EEA77AF4EEC77AF1EE10FAE2
:101D4800D3D83246D9E7002A3FF43BAF03F59B6866
:101D5800DFED586A8646002398ED0B7A0CF10402F1
:101D68008A465CF823100EF1080E07EE901A52F816
:101D780023100233F8EEE77A9C4267EEA67A67EE04
:101D8800877A4EED027A07EE901AF8EEE77A67EE58
:101D9800A67A67EE877A4EED017AE2D85146224656
:101DA800C7F81CA0B047D8ED046AF96900202B1DBC
:101DB8009FED3C7A9FED3C6ADFF808C13E4E20E07B
:101DC800F4EEC67AF1EE10FAC0F289843246D1ED0B
:101DD800017A45F8202066EEA77AF4EEC77AF1EE8C
:101DE80010FA40F2A280F4EEC67AF1EE10FAC0F2D0
:101DF8006E84324643F820200230083184427FF650
:101E0800E1AED1ED007A66EEA77AF4EEC77AF1EE8C
:101E180010FAD5D86246DAE7002A3FF4D2AE03F5C5
:101E28009B68DFED266A82464FF0000E98ED0B7A2C
:101E38000CF104025CF82E300AF1080A83F400035E
:101E4800A3F5000307EE903A52F82E300EF1020E79
:101E5800F8EEE77A83F400037445A3F5000367EE10
:101E6800A67A67EE877A4AED027A07EE903AF8EE9C
:101E7800E77A67EEA67A67EE877A4AED017AD9D8CB
:101E8800F9612246B047D8ED046AF96900202B1D94
:101E98009FED047A9FED046ADFF82CC0084E37E006
:101EA800E802002404FF7FBF04FF7F3F00FEFF46D7
:101EB8000280FFFF000000300082FF7F0000003436
:101EC80082FF7F00007E00807E0080FF00000038D7
:101ED800F4EEC67AF1EE10FAC0F2F2833246D1ED92
:101EE800017A45F8202066EEA77AF4EEC77AF1EE7B
:101EF80010FA18D9F4EEC67AF1EE10FAC0F2D083CF
:101F0800324643F820200230083184427FF65AAE28
:101F1800D1ED007A66EEA77AF4EEC77AF1EE10FA00
:101F2800D6D86246DBE76246EBE7624662E73246AE
:101F3800F7E6A0006208073020F00700ADEB000DBF
:101F4800EA46ADEB000D6846ADEB010D0AEB8206E3
:101F5800E946ADEB010D00EB8202FE61C9E900A67E
:101F68006E46C6E900026EE6002C00F0D782BBF18F
:101F7800020FD3F8F82400F0098379697E6002EB38
:101F88008102FE698900FD61101D5FED305A3961DB
:101F9800D9F80810DFF8908379611146D9F80C2038
:101FA80013460CF10402C7E9029B1D468946834685
:101FB8003CF92E10D8ED0B7A06EE101A32F92E10D5
:101FC80006EE901A39F92E10B8EEC66A07EE101A06
:101FD800F8EEE66A3BF92E10B8EEC77A26EE256AC7
:101FE80066EEA56A27EE257A26EE276A66EEA76AC8
:101FF80027EE277A07EE901A4FEA5E010EF1020EDD
:10200800F8EEE77A0AEB8100744580ED006A06EB8A
:10201800810067EEA57AC0ED006A786900EB81005F
:1020280005EB810180ED007A98ED0B7A67EE877AEF
:10203800C1ED007ABCD87E68FD69D7E9029B4846A5
:102048006208BB6931469847B24B3A69D3F8003504
:10205800D8ED046A1A449FEDB07A9FEDB06A2B1D43
:10206800924602F10409DFEDAE5A0022DFF8BCC245
:10207800D6E9008E4FE0F4EEC67AF1EE10FAC0F21F
:10208800D38247F6FE7045F822000EEB0100D0ED32
:10209800007A66EEA77AF4EEC77AF1EE10FA49D91B
:1020A800F4EEC67AF1EE10FAC0F2C68247F6FE7078
:1020B800BBF1020F43F8220029D0B0680844D0EDE4
:1020C800007A66EEA77AF4EEC77AF1EE10FA35D9FF
:1020D800F4EEC67AF1EE10FAC0F2DA8247F6FE7034
:1020E8004AF82200F0680144D1ED007A66EEA77A3A
:1020F800F4EEC77AF1EE10FA1ED9F4EEC67AF1EED4
:1021080010FAC0F2BD8247F6FE7149F82210023279
:1021180094427FF6A9AD510808EB81008900D0ED03
:10212800007A66EEA77AF4EEC77AF1EE10FAA2D832
:102138006046A8E76046BBE76146E6E76046CFE74A
:10214800002C00F0EB81BBF1020FD3F8F82400F06B
:10215800EC8179693E6002EB8100DFED725A8A00FA
:10216800D9F80C10DFF8C0813A610B46D9F808207D
:1021780000211E46D7F81CE07A61021D2B46FA6042
:102188000CF10402C7E9019B8146D7F80CB05CF852
:102198002100D8ED0B7A07EE100A52F82100B8EEAC
:1021A800C76A07EE100A59F82100F8EEC76A07EE69
:1021B800100A26EE256A5BF82100B8EEC77A66EEAB
:1021C800A56A26EE276A27EE257A66EEA76A27EE25
:1021D800277A07EE900A48080231F8EEE77A0AEB08
:1021E80080058C4285ED006A0EEB800567EEA57AC6
:1021F800C5ED006A7D6905EB800506EB800085ED7D
:10220800007A98ED0B7A67EE877AC0ED007ABED82F
:102218003E681D46D7E9019B48466208BB693146BE
:1022280098473C4B3A69D3F80035D8ED046A1A440C
:102238009FED397A9FED396A131D9246DFF8F0E079
:102248000022FB612B1DDFF8ECC0D6E900984CE0BA
:10225800F4EEC67AF1EE10FAC0F20482604645F850
:10226800220008EB0100D0ED007A66EEA77AF4EEC2
:10227800C77AF1EE10FA47D9F4EEC67AF1EE10FA01
:10228800C0F2F7816046BBF1020F43F8220028D064
:10229800B0680844D0ED007A66EEA77AF4EEC77A03
:1022A800F1EE10FA34D9F4EEC67AF1EE10FAC0F273
:1022B800D28160464AF82200F0680144D1ED007AE4
:1022C80066EEA77AF4EEC77AF1EE10FA1ED9F4EEAC
:1022D800C67AF1EE10FAC0F2B7816146F86940F8A3
:1022E8002210023294427FF6BFAC510809EB8100FC
:1022F8008900D0ED007A66EEA77AF4EEC77AF1EE9F
:1023080010FAA5D87046AAE77046BCE77146E5E71B
:102318007046CFE7E802002404FF7FBF04FF7F3F39
:1023280000FEFF4600000030C00700240280FFFFC7
:10233800007E00800082FF7F00000034002C00F047
:10234800ED8079690020D3F8F8243E6102EB810220
:102358001FED076A8900DFF8BC83796111460432F2
:102368008E4613460CF104021E462B465CF82010DC
:102378004508D8ED0B6ABBF1020F81F40001A1F505
:10238800000107EE901A52F8201081F40001B8EE0F
:10239800E77AA1F5000127EE067A07EE901A0AEB14
:1023A8008501F8EEE77A27EE267A67EE867A81EDE0
:1023B800007AF96967EEA67A01EB85014FEA85058F
:1023C800C1ED007A27D05EF8201081F40001A1F554
:1023D800000107EE901A56F8201081F40001B8EEBB
:1023E800E77AA1F5000127EE067A07EE901AD9F8E8
:1023F8000810F8EEE77A294427EE267A67EE867AFF
:1024080081ED007A98ED0B7AD9F80C1067EE877A8F
:102418002944C1ED007A02308442A7D83E691D469E
:1024280048466208BB6931469847B54B7A69D3F884
:102438000035D8ED046A1A449FEDB27A9FEDB26A6E
:10244800131D9246DFF8D0E20022FB612B1DDFF856
:10245800CCC2D6E900984CE0F4EEC67AF1EE10FA58
:10246800C0F2C680604645F8220008EB0100D0EDB6
:10247800007A66EEA77AF4EEC77AF1EE10FA47D939
:10248800F4EEC67AF1EE10FAC0F2C0806046BBF1F5
:10249800020F43F8220028D0B0680844D0ED007A33
:1024A80066EEA77AF4EEC77AF1EE10FA34D9F4EEB4
:1024B800C67AF1EE10FAC0F2B08060464AF82200FF
:1024C800F0680144D1ED007A66EEA77AF4EEC77A97
:1024D800F1EE10FA1ED9F4EEC67AF1EE10FAC0F257
:1024E8008E806146F86940F82210023294427FF6E5
:1024F800BBAB510809EB81008900D0ED007A66EE8C
:10250800A77AF4EEC77AF1EE10FAA5D87046AAE7D2
:102518007046BCE77146E5E77046CFE7224631468C
:102528004846BB699847FFF79FBBDFF8E8815B46E1
:102538009FED766A0021D8ED0B6A0CF10402D7F8FA
:102548001CB05CF8210007EE900A52F82100B8EEA2
:10255800E77A07EE900A48080231F8EEE77A27EEA4
:10256800067A0AEB800E8C420BEB800067EE867AC7
:1025780027EE267A67EEA67A8EED007AC0ED007A0D
:10258800DFD87A699B4692003A6145E6DFF8848194
:102598005B469FED5F6A0CF10402D8ED0B6AD7F831
:1025A8001CB03CF92E1007EE101A32F92E1007EE67
:1025B800901AB8EEC77A4FEA5E010EF1020EF8EEF5
:1025C800E77A27EE067A0AEB810074450BEB810166
:1025D80067EE867A27EE267A67EEA67A80ED007A8D
:1025E800C1ED007ADDD87A699B4692003A6126E50A
:1025F800F0EE675AFEEEE45A15EE900A33E7F0EE75
:10260800675AFEEEE45A15EE901A6BE7F0EE675A39
:10261800FEEEE45A15EE900A39E7F0EE675AFEEE40
:10262800E45A15EE900A49E767EEA57AFDEEE77AD7
:1026380017EE900A00B226E567EEA57AFDEEE77A76
:1026480017EE900A00B233E5F0EE675AFEEEE05A54
:1026580015EE901A42E6F0EE675AFEEEE05A15EED5
:10266800900A27E6F0EE675AFEEEE05A15EE900A59
:10267800F5E5F0EE675AFEEEE05A15EE900A02E62E
:1026880067EEA57AFDEEE77A17EE901A09B23CE5F7
:1026980067EEA57AFDEEE77A17EE900A00B21FE51D
:1026A800F0EE675AFEEEE45A15EE902A29E467EE3A
:1026B800A57AFDEEE77A17EE902A12B2FFF71DBB56
:1026C800F0EE675AFEEEE45A15EE902A07E4F0EEB3
:1026D800675AFEEEE05A15EE902AFFF78BBBF0EE34
:1026E800675AFEEEE05A15EE902AFFF770BB67EEC8
:1026F800A57AFDEEE77A17EE902A12B2FFF711BB22
:10270800E802002404FF7FBF04FF7F3F0000003081
:1027180000000038C00700247E0080FF82FF7F0091
:1027280010B504460FF0F6FA204610BDF8B5044679
:102738000068002601272379154680F8247003F0E5
:10274800FE034684837603681B68984720682946F9
:1027580003681B689847206839460DF011FD30461C
:10276800F8BD00BFF8B505460068002416462B7969
:102778000122448403F0FE0380F824208376036852
:102788001B689847214628680DF0FAFC2C6894F8D5
:10279800B670012F05D04D48FDF780FD3070002040
:1027A800F8BDA38A2D79002B6FD04FF42A434849EE
:1027B800A3650868A36D94F86D20202A61D194F868
:1027C8006C70012F5DD02227012284F86D701027CC
:1027D80084F86C2084F86E7000272767A4F85620C8
:1027E800A365B4F85620276992B22765FF2A394FA6
:1027F800276653D8B4F85620D4F858C092B2E76D7B
:10280800A4F85420122F4FD0A36DAA2B59D0A36D32
:10281800B3F52A4F02D14FF00073A365B4F8567090
:10282800BFB2FF2F3ED8D4F858C02B4F05F0FE0595
:10283800D3B2E26A45EA0343284D43EA0C0345EA6A
:1028480057553B43576823F0004327EA05073B43A6
:102858005360002384F86C30156845F0F405156062
:1028680005E0632B29D80B68226F1B1A1AB994F854
:102878006D20202AF5D1632B276F25D8B7FA87F763
:102888007F0900232783E38285E7202120690FF051
:1028980001FCA8B120232061A38286E7FF224FF024
:1028A800807CACE70C4FC1E7AA2BADD0A3F52A4337
:1028B8005F425F41002FB9D0A6E7236F0027E0E70A
:1028C800FEE70023A365A9E70027DAE7F00700245D
:1028D800E8020024FD0E000800240080FF63FF03C7
:1028E80070B590F8243004460E4683B1428C531CD0
:1028F800B3F5806F09DC018C8B4215D8C06986540A
:102908000120638C0344638470BD002070BD90F87F
:10291800B4300120234483F8941094F8B43003446D
:10292800DBB284F8B43070BD202BC06938BF2023D7
:1029380019461D460FF0AEFB18B1628CE061258484
:10294800DDE7FEE7F8B5044690F824000E46174682
:1029580058B1638C9818B0F5806F04D8218C8842E0
:1029680020D8B0BBF8BD0020F8BD91B22029F9D815
:1029780081B10139701E16FA81F1C6F1010694F889
:10298800B4C0331810F8015F63448142234483F8CC
:102998009450F4D194F8B4303846DA19D2B284F8A5
:1029A800B420F8BD202838BF202005460146E0693C
:1029B8000FF070FB60B1638CE06125843A461844DF
:1029C80031460FF0AFF9638C3846FA186284F8BDC7
:1029D800FEE7E069F2E700BF2DE9F041046D066EFD
:1029E800D4F8C030B3B1E28A238B9A4212D3A38AB7
:1029F80005469E4210D82069324605F16C010FF059
:102A080091F90022D4F8C0303046E2822683BDE82E
:102A1800F0411847BDE8F081202E3746206938BFBD
:102A2800202739460FF036FB10B12061A782E3E773
:102A3800FEE700BF10B5002104460069C4F816106F
:102A480010B1A28A0FF0FCF80021E069618420B17E
:102A5800228CBDE810400FF0F3B810BD01680022C9
:102A68000B6880F842205A0438D50B6823F4804359
:102A78000B6090F84130292B3AD090F841302A2B3E
:102A880000D07047282222234FF0000C80F8412004
:102A9800036390F841200B6802F02802282A0CBF33
:102AA8006FF044026FF0F40213400B60C36D80F8BE
:102AB80040C01F2B02DCC36D0133C36590F8893019
:102AC800012BDED1C26D90F8413003F02803282B8A
:102AD800D7D1024402F168010DF06EB81B04C8D5C5
:102AE8000B6823F400430B6090F84130292BC4D1C4
:102AF800282221234FF0000C80F84120036390F82E
:102B080041200B6802F02802282A0CBF6FF042020D
:102B18006FF0F20213400B6080F840C080F888C064
:102B2800704700BF036870B50D46196890F84120DA
:102B38000446202002F0F702D861212A7CD194F8BB
:102B48004100186820F0FA00186022635A685B4850
:102B580042F400425A605A6802405A609A699207E1
:102B680001D500229A629A69D60703D49A6942F07D
:102B780001029A61480469D51A68A16B22F480425F
:102B88001A6019B109684A6892B262856A070AD55B
:102B98005A6A25F00405636A1A70636A228D013344
:102BA8006362002A41D1638D9BB21BB1636C43F011
:102BB80004036364002384F84230666C6363002E68
:102BC8004ED1E36A3E4DAB420DD194F8413084F8C2
:102BD8004060222B4FF0200384F8413026634DD00B
:102BE80084F8886070BD2046FFF738FF2023E5622F
:102BF80084F84130266394F8893084F84060012BCA
:102C080055D00023022284F88920E36594F84130E6
:102C1800202BE7D1226828232A4984F841301368F9
:102C2800616343F0B803136070BD638D013A013BE3
:102C380022859BB26385B6E7222A87D194F84100A2
:102C4800186820F0FC00186022637FE709049DD50E
:102C58001A68E16B22F400421A60002992D195E7C4
:102C6800616C2046FEF712F894F84130282BB9D150
:102C780029462046BDE87040FDF7B4BFE36D1F2B21
:102C880002DCE36D0133E36594F88930012BA9D1A7
:102C9800E26D94F8413003F02803282BA2D1224496
:102CA800204602F16801BDE870400CF085BFE36D75
:102CB800002BA6D0236E201F9847A2E700E800FE4D
:102CC8000000FFFF794700080368DA69D10712D5C9
:102CD80001221A6290F8AA20164B03EB8203D3F85C
:102CE800CC25D2F88430D2F88820134303F022038D
:102CF800222B0FD17047DA69920702D502221A6295
:102D0800E8E7DA69510711D4DA691207E2D508222F
:102D18001A62DFE7D0F88830202BEBD190F88030AA
:102D2800012BE7D000F1AB010CF0A4BF04221A621A
:102D3800D0E700BFE802002402682DE9F84F0446F6
:102D4800D06916689568D4F88810222906D01346E9
:102D5800926942F008029A61BDE8F88FB4F86830C9
:102D6800002B00F0B980810640F1848006F480765B
:102D780005F0010594F860A000274FF00408DFF87B
:102D88006491526AA36D0AEA02021A70B4F85E10DE
:102D980023680139A26D89B20132A4F85E10D3F814
:102DA8001CB0A2651BF0070F1DD01BF0010F08D047
:102DB8003EB101221A62D4F88C2042F00102C4F814
:102DC8008C201BF0020F17D055B102221BF0040F04
:102DD8001A62D4F88C2042F00402C4F88C2010D176
:102DE800D4F88C30CBB9B4F85E309BB2FBB11BF091
:102DF800200F3FD02268C4E71BF0040FF0D0002D4D
:102E0800EED0C3F82080D4F88C3043F00203C4F825
:102E18008C30D4F88C30002BE5D02046FFF754FFD7
:102E2800C4F88C70B4F85E309BB2002BDFD12368F5
:102E380053E8002F22F4807243E800210029F7D1DB
:102E480003F1080252E8002F02EA090203F1080020
:102E580040E800210029F3D120222167C4F8882006
:102E6800E26E012A29D0D4F89030201F98471BF031
:102E7800200FBFD1B4F85E309BB2002B3FF46CAF8B
:102E8800B4F868209A427FF667AF236803F1080216
:102E980052E8002F22F0805203F1080040E8002198
:102EA8000029F3D10E4A226753E8002F42F020028E
:102EB80043E800210029F7D14EE7E16653E8002FE7
:102EC80022F0100243E800210029F7D1DA69D2067E
:102ED8008DD510221A628AE7B4F85E303CE700BF4D
:102EE800A51A0008FEFFFFEF02682DE9F84F044617
:102EF800D06917689668D4F88810222906D0134636
:102F0800926942F008029A61BDE8F88FB4F8683017
:102F1800002B00F0AF8085067AD5B4F860B007F4CE
:102F2800807706F001064FF000084FF00409DFF83B
:102F380050A1536AA16D0BEA030321F8023BB4F8D0
:102F48005E30A165013B9BB2A4F85E30D569680785
:102F58001AD0E90708D53FB101231362D4F88C30A1
:102F680043F00103C4F88C30AB0715D54EB10223EA
:102F780068071362D4F88C3043F00403C4F88C302B
:102F88000ED4D4F88C30BBB9B4F85E309BB2EBB138
:102F9800AB063DD52268CCE76907F2D5002EF0D004
:102FA800C2F82090D4F88C3043F00203C4F88C3077
:102FB800D4F88C30002BE7D02046FFF785FEC4F804
:102FC8008C80B4F85E309BB2002BE1D1236853E8C3
:102FD800002F22F4807243E800210029F7D103F181
:102FE800080252E8002F02EA0A0203F1080040E84A
:102FF80000210029F3D120222167C4F88820E26E3D
:10300800012A28D0D4F89030201F9847AB06C1D4A5
:10301800B4F85E309BB2002B3FF476AFB4F868206A
:103028009A427FF671AF236803F1080252E8002F35
:1030380022F0805203F1080040E800210029F3D172
:103048000E4A226753E8002F42F0200243E800218D
:103058000029F7D158E7E16653E8002F22F0100263
:1030680043E800210029F7D1DA69D20690D5102269
:103078001A628DE7B4F85E3046E700BFE51A00082B
:10308800FEFFFFEF806B00220368A0F85E20A0F827
:103098005620DA69D10712D501221A6290F8AA20BF
:1030A800164B03EB8203D3F8CC25D2F88430D2F840
:1030B8008820134303F02203222B0FD17047DA69CB
:1030C800920702D502221A62E8E7DA69510711D499
:1030D800DA691207E2D508221A62DFE7D0F88830E9
:1030E800202BEBD190F88030012BE7D000F1AB0119
:1030F8000CF0C0BD04221A62D0E700BFE802002429
:10310800002807DB012300F01F01034A40098B4018
:1031180042F82030704700BF00E100E0704700BF70
:10312800F0B5C6688E424FD0D0E901538B424CD9D6
:10313800002D52D00468076907EE901AF8EE676A06
:1031480007EE906AF8EE677A87EEA67AC1B1AC46C8
:10315800002207EE902A01328A42F8EEE77A67EEFB
:10316800877AFCEEE77A17EE903A3B44B3FBF6FE1B
:1031780006FB1E3304EB83031B684CF8043BE8D1C1
:103188004369C160B3FBF1F201FB12335A18436182
:10319800B2FBF1F601FB16220261A9B105EB81072A
:1031A800561C0133F5EC017A04EB8202B6FBF1FE02
:1031B800B3FBF1FCAF42C2ED007A01FB1C3301FB0B
:1031C8001E62EDD1C0E90423F0BD591E2DB18E4217
:1031D80004680769B0D14369D4E74369C160B3FBA8
:1031E800F1F201FB12335A184361B2FBF1F301FB10
:1031F80013210161F0BD00BF064B0278407803EB54
:10320800820203EB400392681B8F01B91B04936190
:10321800704700BF883F01082DE9F843036881B96A
:10322800026A00F1280500F5AC74012A0CBF0026DB
:103238004026002B40F07C81424B5722C0F8583181
:103248000FE0426A00F1C00500F5E874012A0CBFDE
:1032580000264026002B00F070813B4B5A22C0F814
:10326800D03100234FF480473849E36063624FF45C
:1032780080530868C4E901264FF48062C4E9042336
:103288004FF480732268C4E906734FF40033236255
:1032980003F1804310339A4248D018339A4245D0FC
:1032A8002B4B2C4FBA4218BF9A4207F118070CBF94
:1032B80001230023BA4208BF43F001031837BA427A
:1032C80008BF43F001031837BA4208BF43F00103AF
:1032D8001837BA4208BF43F0010307F55677BA42D8
:1032E80008BF43F001031837BA4208BF43F001038F
:1032F8001837BA4208BF43F001031837BA4208BF6B
:1033080043F001031837BA4208BF43F001031837E6
:10331800BA4208BF43F001031837BA4208BF43F066
:1033280001031BB90C4B9A4240F07481022384F8C4
:103338003530002384F83430136823F00103136018
:1033480011E000BF1000024070000240E8020024B3
:103358004000024058000240B80402400B681B1AA3
:10336800052B00F2EF801368DB07F7D411682046BD
:10337800944B0B40944933431943944B1B68116099
:10338800536923F007035361FDF7B2FBE26D3F2356
:1033980002F01F029340836022688D488D49A2EB9A
:1033A80000098D4E531A8D4FD9F1000040EB0900EA
:1033B800594259418A4BB24218BF9A4206F118063F
:1033C8000CBF01230023B24208BF43F001031836A3
:1033D800B24208BF43F001031836B24208BF43F0B7
:1033E80001031836B24208BF43F001031836B2424F
:1033F80008BF43F001031836B24208BF43F0010387
:1034080006F55676B24208BF43F001031836B242B9
:1034180008BF43F001031836B24208BF43F0010366
:103428001836B24208BF43F001031836B24208BF4B
:1034380043F001031836B24208BF43F001031836BF
:10344800B24208BF43F001031836B24208BF43F046
:103458000103D61B774243EA00037741614E0B43D1
:10346800A2EB060914363B43D9F1000848EB0908DA
:10347800A2EB06091436D9F1000E48EA03034EEB15
:10348800090EA2EB06091436D9F1000C4EEA030323
:103498004CEB090CA2EB0609D9F100064CEA030330
:1034A80046EB0906DFF868914A4514BF4FF000095A
:1034B8004FF00109334302D1B9F1000F2ED041EA90
:1034C80000033B4348EA03034EEA03034CEA0303C1
:1034D800334359EA0301D3B259D01422083BB3FB52
:1034E800F2F3414A1A4403F01F03920022663F4A4E
:1034F8006266012202FA03F3A366A368802B3ED01A
:103508006368A66EDAB2013BD4E91870072B3A60FB
:1035180046601ED90023C4E91B33636700220123D8
:10352800626584F83530C5E92044A563BDE8F883B1
:103538002F4B5922C0F8583193E6274B5822C0F830
:10354800D0318EE620220323626584F83530FFBE31
:10355800FEE7501E07280BD800292ED0254B134410
:10356800254A9B0022670122E36602FA00F06067A1
:10357800E26E0021236F1160626F5A60CEE700236C
:10358800D4E9181263600B60A36E5360C2E71B484E
:10359800103B10441822A828B3FBF2F300D80833D4
:1035A800174A1A4403F01F0392002266154A6266FE
:1035B800012202FA03F3A3669FE7134B1344134A4D
:1035C8009B00CFE73F8010FE005502000010005C12
:1035D800085402581C54025828000240305402581B
:1035E80010000240445402580096001680580258B1
:1035F800580002403F96001640590258F0FBFDBFA4
:1036080000820010800802403F82001040090240FA
:1036180094540258274B28498A4218BF9A4201F10C
:1036280014010CBF012300238A4208BF43F00103A1
:1036380014318A4208BF43F0010314318A4208BF9B
:1036480043F0010314318A4208BF43F001031431E7
:103658008A4208BF43F0010313B9184B9A4223D199
:1036680002210023402E204684F8343084F8351097
:10367800134B116803EA01030CBF102100210B430F
:1036880042F6A02119430F4B116013441422B3FBD7
:10369800F2F39B00E365FDF72BFAE26D012302F0DC
:1036A8001F029340436077E640220323626584F853
:1036B80035304CE7085402581C54025894540258A8
:1036C8000F00FEFFF8ABFDA72DE9F04F821D8BB070
:1036D8000446031D0190083004F10A01CDE90523D1
:1036E80004F10C02A369CDE907010992002B00F04F
:1036F8008480E369B3FA83F35B09039323461B7958
:1037080001274FF00309029305AB0093009B029930
:1037180053F8042B009313788B4257D0019909680A
:1037280000295FD0012903D1002B5ED04FF00A0A8F
:103738003449527801EB830301EB42029968B2F8ED
:1037480038E0BEF1000F3AD0002307FA03F858001A
:10375800DC0803F007021EEA080F09FA00F601EB7D
:10376800840403F101034FEA820225D08D6807FA29
:1037780000FC4FF0020B25EA06050BFA00F045EABB
:103788000C058D604D6825EA08054D60CD6825EA71
:1037980006054CEA05054FF00F0CCD600CFA02FC4B
:1037A800256A0AFA02F225EA0C052A4322620A6807
:1037B80022EA0606304308603EFA03F2C5D10AAA97
:1037C800009B9A42A2D10BB0BDE8F08F01994879CD
:1037D80051788842A2D103990029F0D0019909684B
:1037E80000299FD14FF0060AA2E75178022914BF99
:1037F8004FF00A0A4FF0080A9AE701230393234679
:103808007DE700BF883F01082DE9F04F0C6883B0C1
:10381800002C00F0A6804FF0000C8E4F634601226A
:103828009A4012EA040E00F095804D6805F00309ED
:1038380009F1FF36012E40F29780B9F1030F40F0ED
:10384800D18009FA0CF26FEA0208066815F4403FC5
:1038580006EA080842EA080202607BD0D7F8F4209A
:1038680023F0030803F0030942F0020208F1B0480C
:103878004FEA8909C7F8F42008F58068D7F8F420DA
:1038880002F002020192019A0F22D8F8086002FAA7
:1038980009F226EA0202704EB04229D006F5806687
:1038A800B04200F0AC806D4EB04200F0AE806C4E7D
:1038B800B04200F09E806B4EB04200F0B2806A4E7B
:1038C800B04200F0B480694EB04200F0A480684E67
:1038D800B04200F0B280674EB04200F0B480664E4D
:1038E800B0420CBF09260A2606FA09F942EA09027B
:1038F800C8F808204FF0B042EE026FEA0E081268CE
:103908004FF0B04654BF08EA02024EEA02023260A3
:10391800AA0276684FF0B04254BF08EA06064EEA9B
:1039280006065660D2F88460AA034FF0B04254BF2E
:1039380008EA06064EEA0606ED034FF0B045C2F85F
:103948008460D2F8802054BF08EA02024EEA0202DC
:10395800C5F8802001330CF1020C34FA03F27FF42D
:103968005EAF03B0BDE8F08F4FF00308866808FA31
:103978000CF826EA080ACE686FEA080806FA0CF678
:1039880046EA0A068660C5F30016D0F804A09E40F1
:103998002AEA020232434260C268B9F1020F8E6815
:1039A80002EA080206FA0CF646EA020609FA0CF2DE
:1039B800C6607FF44AAF03F007064FEAD3094FEA1F
:1039C800860B0F2600EB890906FA0BF6D9F820A01A
:1039D8002AEA060A0E6906FA0BF646EA0A06C9F842
:1039E800206032E74FF0030808FA0CF86FEA08087D
:1039F800D2E7032606FA09F942EA090278E701261E
:103A080006FA09F942EA090272E7022606FA09F9F2
:103A180042EA09026CE7062606FA09F942EA0902AF
:103A280066E7042606FA09F942EA090260E705266C
:103A380006FA09F942EA09025AE7072606FA09F9D5
:103A480042EA090254E7082606FA09F942EA090295
:103A58004EE700BF00440258000002580008025810
:103A6800000C02580010025800140258001802589E
:103A7800001C025800200258002402580148FCF794
:103A8800E7BC00BF440400240148FCF7E1BC00BFC8
:103A9800BC0400240148FCF7DBBC00BFA0060024DE
:103AA8000148FCF7D5BC00BF18070024074BD3F822
:103AB800F00510B40368446B99691A681CB1234671
:103AC8005DF8044B18475DF8044B7047E802002482
:103AD800204BD3F8F00503689A69196810B4D40527
:103AE8002FD50C061FD5416C4FF4807441F00101AD
:103AF80041645105DC6129D5416C4FF4806492051D
:103B080041F008014164DC6106D5426C4FF4007154
:103B180042F002024264D961416C11F00B0F0CD1E2
:103B28005DF8044B70475405F6D49405F4D509069E
:103B3800EBD4416C11F00B0FF2D05DF8044BFDF79C
:103B4800A5B85405F1D50906D6D4E5E79205DCD425
:103B5800E2E700BFE8020024074BD3F8F40510B4ED
:103B68000368446B99691A681CB123465DF8044BD5
:103B780018475DF8044B7047E8020024204BD3F83F
:103B8800F40503689A69196810B4D4052FD50C0692
:103B98001FD5416C4FF4807441F001014164510517
:103BA800DC6129D5416C4FF48064920541F008012D
:103BB8004164DC6106D5426C4FF4007142F00202A8
:103BC8004264D961416C11F00B0F0CD15DF8044BC4
:103BD80070475405F6D49405F4D50906EBD4416C26
:103BE80011F00B0FF2D05DF8044BFDF74FB85405F8
:103BF800F1D50906D6D4E5E79205DCD4E2E700BFA3
:103C0800E8020024074BD3F8F80510B40368446BA6
:103C180099691A681CB123465DF8044B18475DF88A
:103C2800044B7047E8020024204BD3F8F8050368DA
:103C38009A69196810B4D4052FD50C061FD5416CA4
:103C48004FF4807441F0010141645105DC6129D5CC
:103C5800416C4FF48064920541F008014164DC61D5
:103C680006D5426C4FF4007142F002024264D961F9
:103C7800416C11F00B0F0CD15DF8044B70475405E3
:103C8800F6D49405F4D50906EBD4416C11F00B0F6A
:103C9800F2D05DF8044BFCF7F9BF5405F1D50906DD
:103CA800D6D4E5E79205DCD4E2E700BFE8020024B9
:103CB80038B5234BD3F8FC452368656B99691A68B6
:103CC80015B12046A84723689A691968D5052ED5E5
:103CD80008061DD5616C4FF4807041F001016164E4
:103CE8005105D86128D5616C4FF48060950541F085
:103CF80008016164D86106D5626C4FF4007142F026
:103D080002026264D961616C11F00B0F0AD138BDEF
:103D18005005F8D49005F6D50A06EDD4616C11F07B
:103D28000B0FF4D02046BDE83840FCF7AFBF500574
:103D3800F0D50D06D7D4E6E79505DDD4E3E700BF57
:103D4800E8020024204BD3F8FC0503689A69196837
:103D580010B4D4052FD50C061FD5416C4FF48074D0
:103D680041F0010141645105DC6129D5416C4FF4F2
:103D78008064920541F008014164DC6106D5426C1B
:103D88004FF4007142F002024264D961416C11F0B3
:103D98000B0F0CD15DF8044B70475405F6D494050D
:103DA800F4D50906EBD4416C11F00B0FF2D05DF895
:103DB800044BFCF76BBF5405F1D50906D6D4E5E7EB
:103DC8009205DCD4E2E700BFE802002410B40D4CF1
:103DD80062681318EFF308818B4209D80A490B4827
:103DE800091A8B4204D2104663605DF8044B704791
:103DF800074B0C214FF0FF325DF8044B1960104659
:103E0800704700BF000000240000082400040000E0
:103E1800203906244FF0FF30704700BF4FF400539D
:103E280000204B60704700BF01207047002070479A
:103E380000207047FEE700BF024B16224FF0FF300C
:103E48001A6070472039062401207047274B984292
:103E58001FD0B0F1804F10D0A3F57C4398421AD1FF
:103E68000223234A904208BF06231AD1214A9042CE
:103E780008BF0B231AD11846704701231E4A9042E7
:103E880008BF0523EDD11D4A904208BF0A23F2D08E
:103E9800ECE70023F2E703F58063984208BF0323A9
:103EA80015D1174A904208BF072305D1154A9042F9
:103EB80008BF0C23DFD005E0A2F56C42904208BF92
:103EC80008230CD1104A904208BF0D23D3E703F50D
:103ED8008063984218BF4FF6FF73CFD104230B4A73
:103EE800904208BF0923C6D0CDE700BF00000140BB
:103EF8000014004000400140001000400020004035
:103F0800000401400044014000480140001C0040FA
:103F1800034BD3F8000610B10430FDF71BBC704703
:103F2800E8020024034BD3F8000610B10430FDF773
:103F380011BC7047E8020024034BD3F8040610B103
:103F48000430FDF707BC7047E8020024034BD3F8A0
:103F5800080610B10430FDF7FDBB7047E8020024E5
:103F6800034BD3F80C0610B10430FDF7F3BB7047D0
:103F7800E8020024034BD3F8100610B10430FDF713
:103F8800E9BB7047E8020024034BD3F8140610B1CC
:103F98000430FDF7DFBB7047E8020024034BD3F879
:103FA800180610B10430FDF7D5BB7047E8020024AD
:103FB80010B5084CD4F81C0610B10430FDF7CAFB44
:103FC800D4F8240620B10430BDE81040FDF7C2BB88
:103FD80010BD00BFE8020024034BD3F81C0610B143
:103FE8000430FDF7B7BB7047E8020024034BD3F851
:103FF800200610B10430FDF7ADBB7047E80200247D
:10400800034BD3F8280610B10430FDF7A3BB704763
:10401800E8020024034BD3F82C0610B10430FDF756
:1040280099BB7047E8020024034BD3F8300610B15F
:104038000430FDF78FBB7047E8020024034BD3F828
:10404800340610B10430FDF785BB7047E802002440
:10405800034A0130116813685B1A8342FBD3704727
:10406800E8020024F8B50446006800260127237CEE
:10407800490080F8247015465B0001F0FE01468473
:10408800837603681B6898472068E9B203681B6851
:104098009847394620680CF073F80A20FFF7D8FFD4
:1040A8003046F8BD03689968890702D59B680020E7
:1040B80070479968CA070ED59968024601F00D0144
:1040C80001290AD0436D012043F010035365936D15
:1040D8000343936570470020704798681049014072
:1040E800104810B441F00201032499601C60046870
:1040F8009968C9070FD50168091B0229F8D9996879
:10410800C907F5D5536D012043F010035365936D2E
:104118000343936500E000205DF8044B704700BF3F
:10412800C0FFFF7FE8020024194BDB68C3F30223BA
:10413800C3F1070C00B5BCF1040F03F1040E28BF4E
:104148004FF0040CBEF1060F4FF0FF3E8CBF033B4F
:1041580000230EFA0CFC00280EFA03FE21EA0C01DB
:1041680022EA0E0201FA03F141EA020107DB090122
:10417800084BC9B2034483F800135DF804FB00F050
:104188000F000901044BC9B203441976F5E700BFD3
:1041980000ED00E000E100E0FCEC00E0012300F0AD
:1041A8001F01034A40098B4042F82030704700BF86
:1041B80000E100E000285FD038B590F835200346CC
:1041C800022A55D10168574A914248D01832914283
:1041D80045D03032544C5548A14218BF914204F1A1
:1041E80048040CBF01220022814208BF42F00102AC
:1041F8003030A14208BF42F001023034814208BF8A
:1042080042F0010200F55C70A14208BF42F00102D1
:1042180004F55C74814208BF42F001023030A142CB
:1042280008BF42F001023034814208BF42F0010267
:104238003030A14208BF42F001023034814208BF49
:1042480042F001023030A14208BF42F0010281422F
:1042580008BF42F0010212B9354A91420ED1042238
:10426800002083F835200B6823F001030B6038BD6C
:10427800802201205A6538BD012070472D4A2E4DF5
:104288000868A94218BF91422C4C20F00E0005F195
:104298003C050CBF012200220860A14208BF42F081
:1042A800010208682834A94208BF42F0010220F040
:1042B8000100A14208BF42F0010214340860A14283
:1042C80008BF42F001021E48814208BF42F00102C5
:1042D80012B91C4A914217D101229D6DD3E91704E6
:1042E800216800F01F0021F48071824021606A601B
:1042F800DA6ED3E91910486032B11168D3E91C04A9
:1043080021F4807111604460012100241A6D83F842
:10431800351083F834401AB118469047204638BD06
:10432800104638BD100002404000024070000240B4
:10433800B80402401C540258085402583054025819
:104348008054025894540258F8B590F889300446BD
:104358000D461746012BA0F1040651D0A3689F42D1
:1043680000D0F8BD012D4FF0000255D1636E84F8DE
:1043780089201BB1304684F88820984794F8882013
:1043880094F84130D2B203F02803282BE9D195B232
:10439800002A53D0236894F841201A6822F0FA02C0
:1043A8001A6094F84020012ADBD094F841200121BA
:1043B8002A2A84F8401045D0292120224FF000767F
:1043C80084F84110002184F8422004F168026164F5
:1043D800596821F40041596065856262608DE66222
:1043E8009A692949D2032085616301D50822DA61D7
:1043F800002284F840201A6842F0FA021A60F8BDD8
:10440800C36D002BAAD0036E30469847022384F868
:1044180089300023E365A1E70123E26584F8893048
:10442800E16D94F8413003F02803282B99D16C31C1
:1044380020463144BDE8F8400BF0BEBB4FF4007392
:104448006364F8BD94F841101A6801F0280128291E
:104458000CBF6FF044016FF0F4010A401A601A684B
:104468001104A9D51A68E06B22F400421A600028EA
:10447800A2D0064B0365FFF79DFE10B1E06B036DFC
:104488009847236898E700BF794700082113000878
:104498002DE9F04106680446B769B369C7F30047D8
:1044A800B2681B0CF16803F0FE05C368022B0FD13C
:1044B80085EAD213C2F3090213F0060365D1816CB1
:1044C80001318164816C022900F08A80BDE8F081A5
:1044D8003368A0F1040823F0B8033360002690F88D
:1044E800893080F84060012B5CD0A3689D42EDD1F3
:1044F800002F62D00022636E84F889201BB14046E9
:1045080084F88820984794F8882094F84130D2B2EB
:1045180003F02803282BD9D195B2002A69D0236843
:1045280094F841201A6822F0FA021A6094F84020A0
:10453800012ACBD094F8412001212A2A84F840107E
:104548005BD0292120224FF0007684F84110002109
:1045580084F8422004F168026164596821F400413A
:10456800596065856262608DE6629A693349D20353
:104578002085616301D50822DA61002284F8402091
:104588001A6842F0FA021A60A0E7336801F0FE02E6
:10459800394623F0B8033360002380F84030BDE883
:1045A800F041D1E6C36D002B9FD0036E404698477B
:1045B800022384F88930E66597E70123E76584F8E4
:1045C8008930E16D94F8413003F02803282B7FF4FB
:1045D8007DAF6C3120464144BDE8F0410BF0ECBAA8
:1045E800082539468364F56180F84030BDE8F0411C
:1045F800AAE64FF40073636468E794F841101A68F8
:1046080001F0280128290CBF6FF044016FF0F40174
:104618000A401A601A68110493D51A68E06B22F4EC
:1046280000421A6000288CD0054B0365FFF7C2FDD5
:1046380010B1E06B036D9847236882E7794700085B
:1046480021130008F8B590F84030C66A012B00F035
:104658008380174601238A0604460D4680F84030B9
:1046680001D5BB0628D4EA0614D5FB0612D5FB0BE8
:10467800C7F3803143EA973212F0010221D0E06B90
:1046880038B3DF0725D50068436813BBA36B43B372
:1046980019BB26E02A070AD53B0708D594F841300C
:1046A80003F02803282B59D023680822DA61002355
:1046B800184684F84030F8BDFEF734FAEA06E9D522
:1046C800D3E723681022DA610023184684F84030C3
:1046D800F1E7A36B3BB331B3002219684B6803B110
:1046E8000AB394F84130282B02D1B6F1007F39D0B3
:1046F80094F8413016F5803FDBB2E2D0292BE0D1A7
:1047080023681022DA619A69900701D500229A621B
:104718009A69D10703D49A6942F001029A61204646
:10472800FEF79CF9C3E723681022DA6136F080723D
:10473800636C43F00403636494F84130DBB2B6D190
:1047480003F0F703212B01D0222B00D12363616CE6
:104758002046FCF79BFAAAE70220F8BD2046FFF79F
:1047680097FEA4E729462046FCF73CFA9FE700BFDE
:10477800F8B590F84030C66A012B7FD01746012360
:104788008A0604460D4680F8403001D5BB0661D440
:10479800EA061CD5FB061AD5638D9BB2002B5ED1A9
:1047A80094F84130B6F1007FDBB201D1282B7CD0E0
:1047B80094F841301022292B2368DA6102D116F5CA
:1047C800803F61D10023184684F84030F8BD6A075D
:1047D8000DD4280729D5390727D594F8413003F097
:1047E8002803282B5DD023680822DA61EAE77B07D3
:1047F800EFD5638D9BB26BB12268636A526A1A70F7
:10480800638D616A228D013B0131013A9BB261627D
:1048180022856385638D9BB2002BD3D116F5803F2B
:10482800D0D02046FEF71AF9CCE7AA07CAD5BB07AD
:10483800C8D5638D9BB21BB3616A236811F8010B5D
:10484800228D9862638D013A6162013B22859BB299
:104858006385B7E7FEF766F9EA06B8D59AE72368ED
:104868001022DA61636C43F00403636436F08073EA
:10487800A8D1616C2046FCF709FAA3E70220F8BD2D
:1048880036F080739ED1CCE79A69900701D5002253
:104898009A629A69D107C4D49A6942F001029A616E
:1048A800BFE72046FFF7F4FD8CE729462046FCF7D2
:1048B80099F987E7036840F60F0CDA6912EA0C0FDA
:1048C8002DE9F0411D680446996800F03481AE4E28
:1048D800AE4805EA060C08405CEA000640F08E8007
:1048E800E06E01282CD0D70202D54E0200F1568185
:1048F800100606D501F4000105F08000014340F0E0
:104908003A81510678D56A0676D553E8002F22F009
:10491800400243E8002141B1226852E8003F23F0F9
:10492800400342E800310029F7D120210022D4F8C1
:104938009430201FC4F884106267BDE8F04118471E
:10494800D606D0D5E806CED510221A629A68520645
:1049580040F15681E16F0868426892B2002A4BD054
:10496800B4F85C00904247D9C869A4F85E20B0F555
:10497800807F3FD053E8002F22F4807243E8002064
:1049880040B1226852E8000F20F4807042E8000528
:10499800002DF7D103F1080252E8002F22F001029E
:1049A80003F1080545E800200028F3D103F10802C7
:1049B80052E8002F22F0400203F1080545E80020E4
:1049C8000028F3D12022C4F88820E06653E8002F9D
:1049D80022F0100243E800200028F7D16C4D2E6821
:1049E80041B191F83530022B00F04881802381F8DD
:1049F80034004B65B4F85E30BDE8F081D6071F4639
:104A080009D5EE0507D501261E62D4F88C6046F05C
:104A18000106C4F88C60960740F19E80CE070AD53F
:104A280002261E62D4F88C6046F00406C4F88C6036
:104A3800560700F1978016070BD505F0200630437E
:104A480007D008201862D4F88C0040F00800C4F899
:104A58008C0016050AD5680108D54FF40060186265
:104A6800D4F88C3043F02003C4F88C30D4F88C3060
:104A7800002BC1D0930607D505F0200501F0805121
:104A880055EA010340F0B480D4F88C50BB6805F0B7
:104A9800280503F040031D4300F0EA8057E8003F73
:104AA80023F4907347E8003242B1226852E8003F8D
:104AB80023F4907342E800310029F7D12368354880
:104AC80003F1080252E8002F024003F1080545E807
:104AD80000210029F4D1E26E012A73D0002220219E
:104AE800C4F88810E266996822674F067BD503F1FF
:104AF800080252E8002F22F04002083343E8002160
:104B080061B1226802F1080353E8003F23F0400333
:104B180002F1080040E800310029F3D1E06F0028D5
:104B280061D01D4B0365FFF745FB00283FF464AFD8
:104B3800E06F036D0DE097067FF5D2AE05F0200615
:104B480001F080573E433FF4CBAE036F002B3FF498
:104B580053AFBDE8F041184756077FF56CAFCE0755
:104B68007FF569AF04261E62D4F88C6046F0020611
:104B7800C4F88C605FE7636F002B3FF43DAF2046BD
:104B8800BDE8F041184700BF2001000401000010F3
:104B9800E8020024FEFFFFEF8D3000084FF480127A
:104BA8001A62D4F88830202B7FF426AF94F880302E
:104BB800012B3FF421AF04F1AB012046BDE8F041E1
:104BC8000BF058B853E8002F22F0100243E80021F8
:104BD800002983D053E8002F22F0100243E8002177
:104BE8000029EFD17AE72046BDE8F041FEF76CB81E
:104BF800236F002B3FF448AF20469847276843E7C8
:104C0800B4F85E20B4F85C0092B2B4F85E1090423A
:104C180089B23FF4F1AE00293FF4EEAE53E8002F1D
:104C280022F4907243E8002141B1226852E8001F43
:104C380021F4907142E800100028F7D1914803F15F
:104C4800080252E8002F024003F1080545E8002158
:104C58000029F4D120222167C4F88820E16653E8AE
:104C6800002F22F0100243E800210029F7D1C3E603
:104C78002046FEF729F8C4F88C50BDE60A68824B36
:104C88008248834F824218BF9A4200F130000CBF1D
:104C980001230023824208BF43F0010318308242F7
:104CA80008BF43F001031830824208BF43F00103F4
:104CB8001830824208BF43F0010300F55670824263
:104CC80008BF43F001031830824208BF43F00103D4
:104CD8001830824208BF43F001031830824208BFEF
:104CE80043F001031830824208BF43F00103183033
:104CF800824208BF43F001031830824208BF43F0E4
:104D08000103A0F59260BA4218BF824207F5926784
:104D18000CBF01200020BA4208BF43F0010350EA4B
:104D280003073AD0D2F800C02CF01E0CC2F800C01D
:104D3800D2F814C02CF0800CC2F814C000285DD042
:104D4800086E036823F480730360136823F001037B
:104D5800136003E02B689B1B052B58D81368DB07EF
:104D6800F8D4002F5CD0CA6D3F23886D02F01F0273
:104D780093408360CB6ED1E91920506033B11A6833
:104D8800086F22F480721A604B6F4360012200237F
:104D980081F8352081F834302CE63E48DFF8FCC035
:104DA800624518BF82420CF1280C0CBF012000207C
:104DB800624508BF40F001000CF1140C624508BFC1
:104DC80040F001000CF1140C624508BF40F00100EE
:104DD8000CF1140C624508BF40F00100D2F800C085
:104DE8002CF00E0CC2F800C0DFF8B4C0624508BF52
:104DF80040F0010010B928488242A6D1D1F860C01D
:104E0800DCF8000020F48070CCF800009DE720203A
:104E180003220023486581F8343081F83520E9E51C
:104E2800C86D01238D6D00F01F0083401B486B6027
:104E3800184B824218BF9A4200F128000CBF012388
:104E48000023824208BF43F001031430824208BFA6
:104E580043F001031430824208BF43F001031430C9
:104E6800824208BF43F001031430824208BF43F076
:104E78000103002B7FF47EAF074B9A423FF47AAFD1
:104E880084E700BFFEFFFFEF5800024040000240E9
:104E9800280002401C5402589454025808540258DE
:104EA800805402582DE9F0470224644D644E894627
:104EB80080F835400024634F924644650468B44244
:104EC80018BFAC4206F118060CBF01250025B442F4
:104ED80008BF45F001051836B44208BF45F0010582
:104EE8001836B44208BF45F001051836B44208BF69
:104EF80045F0010506F55676B44208BF45F00105B0
:104F08001836B44208BF45F001051836B44208BF48
:104F180045F001051836B44208BF45F001051836BA
:104F2800B44208BF45F001051836B44208BF45F041
:104F380001051836B44208BF45F001051836B442D9
:104F480008BF45F00105A6F59266B44218BFBC42F9
:104F58000CBF0126002601D0002D75D0276827F048
:104F680001072760876D002E46D0D0F86CC0D0E9C5
:104F780019215160BCF1000F02D0D0E91C21516009
:104F8800C26D4FF03F0E02F01F080EFA08FEC7F878
:104F980008E0276827F48027276063608368402B30
:104FA80045D0C4F80890C4F80CA0002E32D023686D
:104FB80023F01E0343F016032360036C1BB1236820
:104FC80043F008032360036E1A68D2030FD4BCF1C0
:104FD800000F05D0DCF8003043F48073CCF80030C3
:104FE8002368002043F001032360BDE8F0871A68B6
:104FF80042F480721A60EAE7D0E91921D0F86CC04F
:105008005160BCF1000F02D0D0E91C215160002D85
:10501800B6D14AE0002DCAD1236823F00E0343F02D
:105028000A032360036C002B40F08A808CE0C4F8EC
:1050380008A0C4F80C90002EB9D1EBE7400002405C
:105048005800024010000240DFF868C1574F64451D
:1050580018BFBC4207F114070CBF4FF0010C4FF00A
:10506800000CBC4208BF4CF0010C1437BC4208BF0E
:105078004CF0010C1437BC4208BF4CF0010C14373B
:10508800BC4208BF4CF0010C276827F001072760D5
:10509800474FBC4208BF4CF0010C876DBCF1000FB4
:1050A800AAD1DFF814C16445A6D0DFF808C1DFF83B
:1050B800FCE0744518BF64450EF1140E0CBF4FF0A8
:1050C800010C4FF0000C744508BF4CF0010C0EF1B8
:1050D800140E744508BF4CF0010C0EF1140E744503
:1050E80008BF4CF0010C0EF1140E744508BF4CF0CB
:1050F800010C0EF1140E744508BF4CF0010CBCF104
:10510800000F03D1DFF8B0C0644585D1C26D4FF000
:10511800010C02F01F0E0CFA0EFCC7F804C0636005
:105128008368402B3DD0C4F80890C4F80CA02368CD
:1051380023F00E0343F00A032360036C002B2DD0E9
:10514800236843F004032360184B1A4A944218BF9B
:105158009C4202F128020CBF01230023944208BF9D
:1051680043F001031432944208BF43F001031432A0
:10517800944208BF43F001031432944208BF43F03D
:1051880001031432944208BF43F0010314329442DD
:1051980008BF43F00103002B3FF422AFD0F86CC0E6
:1051A80011E7C4F808A0C4F80C90C0E71C540258D2
:1051B80080540258085402589454025800284DD07C
:1051C800034610B490F8412002F0FF01002A42D0B3
:1051D8001A682420596883F84100106821F070612A
:1051E800DC6820F00100012C10601161916821F445
:1051F8000041916099682AD041F40441022C9160E1
:1052080002D14FF400615160546815481969204370
:105218005060D06820F40040D060D3E905402143B5
:1052280041EA0021D3E90704D1600021204320246A
:105238001060106840F0010010600846596483F857
:105248004140196383F842105DF8044B704741F4FC
:1052580000419160D8E780F84010B9E70120704715
:10526800008000022DE9F04FADF2D45D102606F063
:1052780077FF01211320002406F076FC0321162075
:10528800DB4D06F071FCDB4BC3E902660AF03AFF1E
:10529800D94BA5F840462146D3F8D8200B2042F038
:1052A8000102C3F8D8202246D3F8D83003F001030E
:1052B8000493049BFEF738FF0B20FEF76FFF22468E
:1052C80021460C20FEF730FF0C20FEF767FF224630
:1052D80021460D20FEF728FF0D20FEF75FFF22462E
:1052E80021460E20FEF720FF0E20FEF757FF22462C
:1052F80021460F20FEF718FF0F20FEF74FFF22462A
:1053080021463046FEF710FF3046FEF747FF22469B
:1053180021461120FEF708FF1120FEF73FFFBFF3DB
:105328005F8FB64B4FF04050B54901275A6A0526A2
:1053380022F480325A624FF04042C3F89440C3F8D6
:105348009840C3F89C00C3F8A010C3F89870C3F83D
:105358009C20AC4AC3F8A020C3F894605A6A42F46F
:1053680080325A62BFF34F8FBFF36F8FA64B4FF057
:10537800030A022120200F9303F100730E9403F512
:1053880040731597CDF848A010934FF44173CDE9B9
:105398001374ADF8443006F0E7FB9C4B1A6912F021
:1053A800080840F09E81D5F8742605F5C9630DF10B
:1053B800400B974922930DF19009ADF88C7005F2D6
:1053C80074608DF88E8022AC9FED857B8BED067B1B
:1053D80013689FED857B23F0010389ED007B136043
:1053E800C5F87816FFF7EAFED5F874262068742108
:1053F80013684FF01B0C43F001031360C0E91FC191
:105408000AF0B0F8A37942460F21002B204614BFBA
:105418001B231A232374FEF725FE002800F077814A
:10542800B5F94036052B00F06D814FF417730E9EC9
:10543800784F0EA903FB067630460BF027F8B5F92E
:105448004036052B00F0CA810DAFB5F94036042B64
:1054580000F08E8233694FF07E52C5F8EC64C5F8CF
:10546800E4346D4BC5F8F4346C4BC5F8FC346C4B24
:10547800C5F83C361A61DA623023C5F8E0344FF4D7
:10548800E06308210122A5F842360523C5F81C1758
:10549800202185F84436C5F820174021614BC5F80E
:1054A80024174FF4C071C5F844375F4BC5F8281767
:1054B8004FF40061C5F810370023C5F830174FF4D2
:1054C8008051C5F81437C5F82C37C5F8383795F822
:1054D8003C37C5F83417C5F8182703F0FF01002B2F
:1054E80000F095820223D5F8102785F83C37D5F8C7
:1054F8001437002B00F00182D5F83037D5F834176F
:10550800D5F81C071943D5F8183716680343D5F89A
:10551800380726F4F846014331431160D5F82017BF
:1055280050680B43D5F824170B43D5F828170B43BD
:10553800D5F82C170B433D4901400B433C495360B8
:10554800936819403B4B0B439360D1683A4B01F089
:1055580070410B43D360394A002101264FF0010AFC
:1055680013684FF0000B204643F0004313600122FC
:10557800102385F83C67396049E90223C9E900AB83
:105588000AF0EAFA6420FEF763FD0222102320469F
:10559800C9E900AB49E902230AF0DEFA0322102325
:1055A80020464FF0040A4FF0100B49E90223042269
:1055B8000023C9E900230AF0CFFA40F2322320463B
:1055C8003B603B6849E902ABC4E902630AF0C4FAEC
:1055D80095F83C37022B39D032E000BFAFF300809A
:1055E80001000000000000000100000008000000A9
:1055F800E8020024000000240044025800ED00E006
:105608001D000C033300030304020404000C0258B9
:105618003211D020EC0200240020003000000030BD
:10562800C00700242A090024404100520080FFFFDF
:10563800FF0F0FFF0070F0FF6103020900400052E6
:1056480095F83C37B342D8B200F0B0822046022623
:105658000AF0D2FF002700230DF5B062D5F83C56BA
:105668002146A4F80C35C4F808350DF5B263B648E0
:10567800C2E90067002600274FF4A96243E90267E0
:105688000CF050FB6B694FF4F0721B69AA60042B95
:1056980000F25681AD4A02EB8303D3ED167ADFEDB3
:1056A800AC6AAC4B87EEA67AA86983ED007A38B16C
:1056B80000224FF4F0630092AA6A296A0AF09AFE5F
:1056C800AB68A54A9B0000926A6AE96968690AF0B2
:1056D80091FEA24A0023C5E900230DF2D45DBDE87E
:1056E800F08F002201230DF1400B22AC0DF190093F
:1056F800CBE9062340F60133ADF80830029809F0EB
:1057080075FE8DE601220023CBE906238DE60146CE
:1057180017222046FEF7A6FC00287FF481AE172248
:1057280039462046FEF79EFC024600287FF478AEF4
:1057380002212046FEF796FC024600287FF470AE50
:1057480051462046FEF78EFC00287FF469AE1222EF
:1057580004212046FEF786FC024600287FF460AE4E
:1057680031462046FEF77EFC00287FF459AE2379A7
:1057780006212046002B0CBF42226222FEF772FC53
:1057880000287FF44DAED4E902321A432379002B66
:10579800D2B2637914BF002140210A430BB142F011
:1057A800200207212046FEF75DFC024600287FF410
:1057B80037AE08212046FEF755FC024600287FF444
:1057C8002FAE09212046FEF74DFC00287FF428AEB5
:1057D800012209212046FEF745FC21E6D5F874266A
:1057E80007F2446307F5CE601B272360136823F094
:1057F800010313605A4BC5F87836FFF7DFFCD5F87C
:10580800742620681A21136843F001031360C0E965
:105818001F7109F0A7FE8C230BAA402123710023D6
:1058280020468DF82C30FCF79DFF00287FF40CAE45
:105838009DF82C204021204602F07F028DF82C2074
:10584800FCF774FF00287FF4FFAD0420FEF700FC8E
:105858000BAA40212046FCF785FF00287FF4F4AD11
:105868009DF82C204021204602F0BF028DF82C2004
:10587800FCF75CFF00287FF4E7AD04200DAFFEF7CE
:10588800E7FB43210CAA2046FCF76CFF00287FF4B5
:10589800DCAD482120463A46FCF764FF00287FF437
:1058A800D4AD3B7843219DF83020204643F00103D6
:1058B80042F001023B708DF83020FCF737FF0028DA
:1058C8007FF4C3AD3A7848212046FCF72FFF002823
:1058D8007FF4BBAD0BAA40212046FCF743FF00280C
:1058E8007FF4B3AD9DF82C204021204602F0CF0272
:1058F8008DF82C20FCF71AFFA7E5D5F81C17D5F86A
:10590800183710680B43D5F820170B43D5F8241720
:105918000B43D5F828170B43D5F82C170B43D5F8AC
:1059280030170B43D5F834170B43D5F838170B430A
:105938000C4901400B43136093680B4B93600AE6D4
:10594800DFED0A7AABE600BF340A0024883F01087D
:105958000000F04320090024651B0008251B0008EF
:105968003211D0200080FFFF6173F2FF00803B47B7
:1059780001229F4BDFF8948218A9CDE9182303F17F
:1059880001230322404603F57D031A930023ADF853
:105998006C300123CBE90C2301220023CBE90E2331
:1059A80001230022CBE910230AF070FDB5F9403637
:1059B800042B7FF44FAD40F60163ADF80C3003982B
:1059C80009F014FD8B4A3369C5F8F42402F58052B6
:1059D800C5F8E43408F51E73C5F8F824864AC5F8F6
:1059E8003C363023C5F8FC2402F58052C5F8EC6437
:1059F800C5F800254FF07C52C5F8F084C8F8882215
:105A08004FF08042C5F8E034C8F8A42237E5D5F84D
:105A1800488785F83D17A160B8F1000F7FF462ADA3
:105A2800764B0C26C5F848274FF6837AD3F8D4204E
:105A38004FF0020B2146724842F48052C3F8D4203A
:105A4800D3F8D42002F480520C920C9AD3F8E020B8
:105A580042F01002C3F8E020D3F8E02002F0100270
:105A68000B920B9AD3F8E02042F04002C3F8E020F2
:105A7800D3F8E02002F040020A920A9AD3F8E02014
:105A880042F00802C3F8E020D3F8E02002F0080250
:105A98000992099AD3F8E02042F48072C3F8E02012
:105AA800D3F8E02002F480720892089AD3F8E02034
:105AB80042F08002C3F8E020D3F8E02002F0800230
:105AC8000792079AD3F8E02042F02002C3F8E020BA
